{
    "contractName": "Airlines",
    "abi": [
        {
            "inputs": [],
            "stateMutability": "payable",
            "type": "constructor"
        },
        {
            "inputs": [
                {
                    "internalType": "address",
                    "name": "",
                    "type": "address"
                }
            ],
            "name": "balanceDetails",
            "outputs": [
                {
                    "internalType": "uint256",
                    "name": "escrow",
                    "type": "uint256"
                },
                {
                    "internalType": "uint256",
                    "name": "status",
                    "type": "uint256"
                },
                {
                    "internalType": "uint256",
                    "name": "hashOfDetails",
                    "type": "uint256"
                }
            ],
            "stateMutability": "view",
            "type": "function"
        },
        {
            "inputs": [],
            "name": "register",
            "outputs": [],
            "stateMutability": "payable",
            "type": "function"
        },
        {
            "inputs": [
                {
                    "internalType": "address",
                    "name": "toAirline",
                    "type": "address"
                },
                {
                    "internalType": "uint256",
                    "name": "hashOfDetails",
                    "type": "uint256"
                }
            ],
            "name": "request",
            "outputs": [],
            "stateMutability": "nonpayable",
            "type": "function"
        },
        {
            "inputs": [
                {
                    "internalType": "address",
                    "name": "fromAirline",
                    "type": "address"
                },
                {
                    "internalType": "uint256",
                    "name": "hashOfDetails",
                    "type": "uint256"
                },
                {
                    "internalType": "uint256",
                    "name": "done",
                    "type": "uint256"
                }
            ],
            "name": "response",
            "outputs": [],
            "stateMutability": "nonpayable",
            "type": "function"
        },
        {
            "inputs": [
                {
                    "internalType": "address payable",
                    "name": "toAirline",
                    "type": "address"
                }
            ],
            "name": "settlePayment",
            "outputs": [],
            "stateMutability": "payable",
            "type": "function"
        },
        {
            "inputs": [
                {
                    "internalType": "address payable",
                    "name": "AirlineZ",
                    "type": "address"
                }
            ],
            "name": "unregister",
            "outputs": [],
            "stateMutability": "nonpayable",
            "type": "function"
        }
    ],
    "bytecode": "60806040908152600080546001600160a01b031916339081178255815260026020908152828220600190819055905220349055610491806100416000396000f3fe6080604052600436106100555760003560e01c80631aa3a0081461005a5780632109dc88146100815780632ec2c246146100945780636d1954e0146100b4578063a3aa1913146100d4578063c8c01a551461012e575b600080fd5b61007f3360009081526002602090815260408083206001908190559091529020349055565b005b61007f61008f366004610391565b61014e565b3480156100a057600080fd5b5061007f6100af366004610391565b610212565b3480156100c057600080fd5b5061007f6100cf3660046103b5565b6102a8565b3480156100e057600080fd5b5061010f6100ef366004610391565b600160208190526000918252604090912080549181015460029091015483565b6040805193845260208401929092529082015260600160405180910390f35b34801561013a57600080fd5b5061007f6101493660046103ea565b610319565b3360009081526002602052604090205460011461016a57600080fd5b6001600160a01b0381166000908152600160205260409020543390349061019290829061042c565b6001600160a01b0380851660009081526001602052604080822093909355908416815220546101c2908290610444565b6001600160a01b038084166000908152600160205260408082209390935591519085169183156108fc02918491818181858888f1935050505015801561020c573d6000803e3d6000fd5b50505050565b6000546001600160a01b0316331461022957600080fd5b6000546001600160a01b0316331461024057600080fd5b6001600160a01b0381166000818152600260209081526040808320839055600190915280822054905181156108fc0292818181858888f1935050505015801561028d573d6000803e3d6000fd5b506001600160a01b0316600090815260016020526040812055565b336000908152600260205260409020546001146102c457600080fd5b6001600160a01b0383166000908152600260205260409020546001146102e957600080fd5b336000908152600160208190526040808320909101929092556001600160a01b0393909316835290912060020155565b3360009081526002602052604090205460011461033557600080fd5b6001600160a01b03821660009081526002602052604090205460011461035a57600080fd5b3360009081526001602081905260408220908101919091556002015550565b6001600160a01b038116811461038e57600080fd5b50565b6000602082840312156103a357600080fd5b81356103ae81610379565b9392505050565b6000806000606084860312156103ca57600080fd5b83356103d581610379565b95602085013595506040909401359392505050565b600080604083850312156103fd57600080fd5b823561040881610379565b946020939093013593505050565b634e487b7160e01b600052601160045260246000fd5b6000821982111561043f5761043f610416565b500190565b60008282101561045657610456610416565b50039056fea264697066735822122029117472023a2aebcbe8a29de5895eb2bf82e12f06df67abf9df0369760c366a64736f6c63430008090033",
    "sourcePath": "/Users/davidainslie/workspace/blockchain/blockchain-in-action/contracts/Airlines.sol",
    "compiler": {
        "name": "solc",
        "version": "0.8.9+commit.e5eed63a"
    },
    "functionHashes": {
        "balanceDetails(address)": "a3aa1913",
        "register()": "1aa3a008",
        "request(address,uint256)": "c8c01a55",
        "response(address,uint256,uint256)": "6d1954e0",
        "settlePayment(address)": "2109dc88",
        "unregister(address)": "2ec2c246"
    },
    "gasEstimates": {
        "creation": {
            "codeDepositCost": "233800",
            "executionCost": "68832",
            "totalCost": "302632"
        },
        "external": {
            "balanceDetails(address)": "6842",
            "register()": "44437",
            "request(address,uint256)": "32009",
            "response(address,uint256,uint256)": "49167",
            "settlePayment(address)": "infinite",
            "unregister(address)": "infinite"
        }
    }
}