{
    "contractName": "Ballot",
    "abi": [
        {
            "inputs": [
                {
                    "internalType": "uint256",
                    "name": "numProposals",
                    "type": "uint256"
                }
            ],
            "stateMutability": "nonpayable",
            "type": "constructor"
        },
        {
            "inputs": [
                {
                    "internalType": "enum Ballot.Phase",
                    "name": "x",
                    "type": "uint8"
                }
            ],
            "name": "changeState",
            "outputs": [],
            "stateMutability": "nonpayable",
            "type": "function"
        },
        {
            "inputs": [
                {
                    "internalType": "address",
                    "name": "voter",
                    "type": "address"
                }
            ],
            "name": "register",
            "outputs": [],
            "stateMutability": "nonpayable",
            "type": "function"
        },
        {
            "inputs": [],
            "name": "reqWinner",
            "outputs": [
                {
                    "internalType": "uint256",
                    "name": "winningProposal",
                    "type": "uint256"
                }
            ],
            "stateMutability": "view",
            "type": "function"
        },
        {
            "inputs": [],
            "name": "state",
            "outputs": [
                {
                    "internalType": "enum Ballot.Phase",
                    "name": "",
                    "type": "uint8"
                }
            ],
            "stateMutability": "view",
            "type": "function"
        },
        {
            "inputs": [
                {
                    "internalType": "uint256",
                    "name": "toProposal",
                    "type": "uint256"
                }
            ],
            "name": "vote",
            "outputs": [],
            "stateMutability": "nonpayable",
            "type": "function"
        }
    ],
    "bytecode": "60806040526003805460ff1916905534801561001a57600080fd5b50604051610580380380610580833981016040819052610039916100ce565b600080546001600160a01b0319163390811782558152600160205260408120600290555b818110156100ba576040805160208101909152600080825260028054600181018255915290517f405787fa12a823e0f2b7631cc41b3ba8828b3321ca811111fa75cd3aa3bb5ace90910155806100b2816100e7565b91505061005d565b50506003805460ff19166001179055610110565b6000602082840312156100e057600080fd5b5051919050565b600060001982141561010957634e487b7160e01b600052601160045260246000fd5b5060010190565b6104618061011f6000396000f3fe608060405234801561001057600080fd5b50600436106100575760003560e01c80630121b93f1461005c578063268f1153146100715780634420e48614610084578063508b30c914610097578063c19d93fb146100b2575b600080fd5b61006f61006a366004610324565b6100cc565b005b61006f61007f36600461033d565b61018b565b61006f610092366004610365565b6101fc565b61009f610289565b6040519081526020015b60405180910390f35b6003546100bf9060ff1681565b6040516100a991906103a4565b6002806003805460ff16908111156100e6576100e661038e565b146100f057600080fd5b336000908152600160208181526040928390208351606081018552815481529281015460ff1615159183018290526002015492820192909252908061013757506002548310155b1561014157600080fd5b600160208201526040810183905280516002805485908110610165576101656103cc565b90600052602060002001600001600082825461018191906103f8565b9091555050505050565b6000546001600160a01b031633146101a257600080fd5b6003805460ff16908111156101b9576101b961038e565b8160038111156101cb576101cb61038e565b10156101d657600080fd5b6003805482919060ff1916600183838111156101f4576101f461038e565b021790555050565b6001806003805460ff16908111156102165761021661038e565b1461022057600080fd5b6000546001600160a01b03163314158061025657506001600160a01b0382166000908152600160208190526040909120015460ff165b1561026057600080fd5b506001600160a01b0316600090815260016020819052604090912081815501805460ff19169055565b60006003806003805460ff16908111156102a5576102a561038e565b146102af57600080fd5b6000805b60025481101561031e5781600282815481106102d1576102d16103cc565b9060005260206000200160000154111561030c57600281815481106102f8576102f86103cc565b906000526020600020016000015491508093505b8061031681610410565b9150506102b3565b50505090565b60006020828403121561033657600080fd5b5035919050565b60006020828403121561034f57600080fd5b81356004811061035e57600080fd5b9392505050565b60006020828403121561037757600080fd5b81356001600160a01b038116811461035e57600080fd5b634e487b7160e01b600052602160045260246000fd5b60208101600483106103c657634e487b7160e01b600052602160045260246000fd5b91905290565b634e487b7160e01b600052603260045260246000fd5b634e487b7160e01b600052601160045260246000fd5b6000821982111561040b5761040b6103e2565b500190565b6000600019821415610424576104246103e2565b506001019056fea26469706673582212206bc77788b7988f8a3c0eccf63d1dbf0ba812a0a04df0a5ef9e76538780dd1e2664736f6c63430008090033",
    "sourcePath": "/Users/davidainslie/workspace/blockchain/blockchain-in-action/contracts/Ballot.sol",
    "compiler": {
        "name": "solc",
        "version": "0.8.9+commit.e5eed63a"
    },
    "functionHashes": {
        "changeState(uint8)": "268f1153",
        "register(address)": "4420e486",
        "reqWinner()": "508b30c9",
        "state()": "c19d93fb",
        "vote(uint256)": "0121b93f"
    },
    "gasEstimates": {
        "creation": {
            "codeDepositCost": "224200",
            "executionCost": "infinite",
            "totalCost": "infinite"
        },
        "external": {
            "changeState(uint8)": "28847",
            "register(address)": "53245",
            "reqWinner()": "infinite",
            "state()": "2417",
            "vote(uint256)": "37528"
        }
    }
}