{
    "contractName": "BallotV1",
    "abi": [
        {
            "inputs": [
                {
                    "internalType": "uint256",
                    "name": "numProposals",
                    "type": "uint256"
                }
            ],
            "stateMutability": "nonpayable",
            "type": "constructor"
        },
        {
            "inputs": [
                {
                    "internalType": "enum BallotV1.Phase",
                    "name": "x",
                    "type": "uint8"
                }
            ],
            "name": "changeState",
            "outputs": [],
            "stateMutability": "nonpayable",
            "type": "function"
        },
        {
            "inputs": [],
            "name": "state",
            "outputs": [
                {
                    "internalType": "enum BallotV1.Phase",
                    "name": "",
                    "type": "uint8"
                }
            ],
            "stateMutability": "view",
            "type": "function"
        }
    ],
    "bytecode": "60806040526003805460ff1916905534801561001a57600080fd5b50604051610292380380610292833981016040819052610039916100c1565b600080546001600160a01b0319163390811782558152600160205260408120600290555b818110156100ba576040805160208101909152600080825260028054600181018255915290517f405787fa12a823e0f2b7631cc41b3ba8828b3321ca811111fa75cd3aa3bb5ace90910155806100b2816100da565b91505061005d565b5050610103565b6000602082840312156100d357600080fd5b5051919050565b60006000198214156100fc57634e487b7160e01b600052601160045260246000fd5b5060010190565b610180806101126000396000f3fe608060405234801561001057600080fd5b50600436106100365760003560e01c8063268f11531461003b578063c19d93fb14610050575b600080fd5b61004e6100493660046100e4565b610073565b005b60035461005d9060ff1681565b60405161006a9190610122565b60405180910390f35b6000546001600160a01b0316331461008a57600080fd5b6003805460ff16908111156100a1576100a161010c565b8160038111156100b3576100b361010c565b10156100be57600080fd5b6003805482919060ff1916600183838111156100dc576100dc61010c565b021790555050565b6000602082840312156100f657600080fd5b81356004811061010557600080fd5b9392505050565b634e487b7160e01b600052602160045260246000fd5b602081016004831061014457634e487b7160e01b600052602160045260246000fd5b9190529056fea26469706673582212208e601ce71030e9d3922af8586145e86a0c3d8f73f63cc5365289b6977bd2018064736f6c63430008090033",
    "sourcePath": "/Users/davidainslie/workspace/blockchain/blockchain-in-action/contracts/BallotV1.sol",
    "compiler": {
        "name": "solc",
        "version": "0.8.9+commit.e5eed63a"
    },
    "functionHashes": {
        "changeState(uint8)": "268f1153",
        "state()": "c19d93fb"
    },
    "gasEstimates": {
        "creation": {
            "codeDepositCost": "76800",
            "executionCost": "infinite",
            "totalCost": "infinite"
        },
        "external": {
            "changeState(uint8)": "28825",
            "state()": "2351"
        }
    }
}