{
    "contractName": "Counter",
    "abi": [
        {
            "inputs": [
                {
                    "internalType": "uint256",
                    "name": "n",
                    "type": "uint256"
                }
            ],
            "name": "decrement",
            "outputs": [],
            "stateMutability": "nonpayable",
            "type": "function"
        },
        {
            "inputs": [],
            "name": "get",
            "outputs": [
                {
                    "internalType": "uint256",
                    "name": "",
                    "type": "uint256"
                }
            ],
            "stateMutability": "view",
            "type": "function"
        },
        {
            "inputs": [
                {
                    "internalType": "uint256",
                    "name": "n",
                    "type": "uint256"
                }
            ],
            "name": "increment",
            "outputs": [],
            "stateMutability": "nonpayable",
            "type": "function"
        },
        {
            "inputs": [
                {
                    "internalType": "uint256",
                    "name": "x",
                    "type": "uint256"
                }
            ],
            "name": "initialize",
            "outputs": [],
            "stateMutability": "nonpayable",
            "type": "function"
        }
    ],
    "bytecode": "608060405234801561001057600080fd5b50610157806100206000396000f3fe608060405234801561001057600080fd5b506004361061004c5760003560e01c80633a9ebefd146100515780636d4ce63c146100665780637cf5dab01461007b578063fe4b84df1461008e575b600080fd5b61006461005f3660046100c3565b6100a1565b005b60005460405190815260200160405180910390f35b6100646100893660046100c3565b6100b5565b61006461009c3660046100c3565b600055565b806000546100af91906100f2565b60005550565b806000546100af9190610109565b6000602082840312156100d557600080fd5b5035919050565b634e487b7160e01b600052601160045260246000fd5b600082821015610104576101046100dc565b500390565b6000821982111561011c5761011c6100dc565b50019056fea264697066735822122061e77fc5af6fb861709cbc4dfe3b977a7ca79edaf3308f9faa9ba4644559ac1664736f6c63430008090033",
    "sourcePath": "/Users/davidainslie/workspace/blockchain/blockchain-in-action/contracts/Counter.sol",
    "compiler": {
        "name": "solc",
        "version": "0.8.9+commit.e5eed63a"
    },
    "functionHashes": {
        "decrement(uint256)": "3a9ebefd",
        "get()": "6d4ce63c",
        "increment(uint256)": "7cf5dab0",
        "initialize(uint256)": "fe4b84df"
    },
    "gasEstimates": {
        "creation": {
            "codeDepositCost": "68600",
            "executionCost": "117",
            "totalCost": "68717"
        },
        "external": {
            "decrement(uint256)": "24477",
            "get()": "2268",
            "increment(uint256)": "24524",
            "initialize(uint256)": "22356"
        }
    }
}